:020000040800F2
:10000000280600204501000859050008770400086B
:1000100055050008D3010008D10D000800000000BC
:100020000000000000000000000000003D09000882
:10003000590200080000000001060008510A0008EB
:10004000E10D00085F0100085F010008D908000801
:100050005F0100085F0100085D0200085F01000801
:1000600099020008C9020008F90200085F010008AF
:10007000D90100085F0100085F0100085F01000866
:100080005F0100085F0100085F0100085F010008D0
:100090005F0100085F0100085F0100085F010008C0
:1000A0005F0100085F0100085F0100085F010008B0
:1000B000F10A00085F0100085F0100085F01000805
:1000C0005F0100085F0100085F0100085F01000890
:1000D0005F010008490B00086D0B0008290C00089F
:1000E0005F0100085F0100085F0100085F01000870
:1000F0005F0100085F0100085F0100085F01000860
:100100005F0100085F0100081D0B00085F01000887
:100110005F0100085F0100085F0100085F0100083F
:100120005F0100085F0100085F0100085F0100082F
:10013000DFF80CD000F018F800480047810E0008E6
:10014000280600200648804706480047FEE7FEE7ED
:10015000FEE7FEE7FEE7FEE7FEE7FEE7FEE7FEE777
:10016000910A000831010008064C074D06E0E068DE
:1001700040F0010394E8070098471034AC42F6D3EE
:10018000FFF7DAFFD00F0008F00F000811E000F0D1
:100190007DF900F0CBFE00F0A5FE0648006808B926
:1001A000012000E00020034908604FF4FA7000F0DD
:1001B00041FEECE78001224210B500F0B1F940F6B3
:1001C000FF71042000F066F94FF4165000F0E0FCD7
:1001D00010BD00BFFEE7000010B5202000F026F89B
:1001E000012802D1202000F007F80021014800F08A
:1001F00011F810BD1C00024000F0805111B10349FC
:10020000086001E0024948607047000004040240B1
:100210000000024021B1026842F00102026004E0E5
:1002200002684FF6FE731A400260704701460020D4
:10023000002201F0805313B1054B1A6801E0054B11
:100240001A6802EA01030BB1012000E000207047A8
:1002500000040240000002407047000010B5012079
:1002600000F068F801280ED10A2000F0E3FD0848EC
:100270000068012807D10748006808B9012000E09C
:10028000002004490860012000F04EF810BD000075
:10029000000121428001224210B50A2000F0CAFD6F
:1002A0000748006838B90748006808B9012000E02D
:1002B000002004490860042000F036F810BD00005A
:1002C000080123428801224210B50A2000F0B2FD45
:1002D0000748006838B90748006808B9012000E0FD
:1002E000002004490860082000F01EF810BD00003E
:1002F0000C0123428C01224210B50A2000F09AFD25
:100300000748006838B90748006808B9012000E0CC
:10031000002004490860102000F006F810BD00001D
:1003200010012342900122420149086070470000F9
:1003300014040140014600200022074B1B6803EA19
:100340000102054B14331B680B4013B10AB10120A5
:1003500000E0002070470000000401402DE9F0415A
:10036000024600250026002000230024002791F8E3
:1003700003C00CF00F0591F803C00CF0100CBCF199
:10038000000F03D091F802C04CEA050591F800C0B7
:10039000BCF1000F31D0146800202BE04FF0010CAD
:1003A0000CFA00F3B1F800C00CEA03069E4220D11B
:1003B00083004FF00F0C0CFA03F7BC4305FA03FC63
:1003C0004CEA040491F803C0BCF1280F06D14FF0A9
:1003D000010C0CFA00FCC2F814C00AE091F803C04A
:1003E000BCF1480F05D14FF0010C0CFA00FCC2F82B
:1003F00010C0401C0828D1D31460B1F800C0BCF173
:10040000FF0F34DD546800202EE000F1080C4FF09F
:10041000010808FA0CF3B1F800C00CEA03069E428A
:1004200021D183004FF00F0C0CFA03F7BC4305FAFF
:1004300003FC4CEA040491F803C0BCF1280F05D179
:1004400000F1080C08FA0CF8C2F8148091F803C007
:10045000BCF1480F07D100F1080C4FF0010808FA71
:100460000CF8C2F81080401C0828CED35460BDE8B8
:10047000F081C160704700BFFEE700004CF6CC4041
:1004800001490860704700000030004010B500F0DE
:1004900013F810BD70B505460C4645F2555000F0F6
:1004A0001FF8284600F010F8204600F013F800F07E
:1004B00003F8FFF7E3FF70BD4AF6AA200149086080
:1004C000704700000030004001494860704700005C
:1004D0000030004001498860704700000030004053
:1004E0000149086070470000003000400146CA170B
:1004F00001EB92729210A1EB82022AB9642291FB65
:10050000F2F302FB131232B94FF4C87291FBF2F30B
:1005100002FB13120AB9002070474FF0FF30FBE7CF
:1005200008B50121102000F07DF8FF20ADF8000093
:1005300010208DF8030003208DF80200694604485E
:10054000FFF70CFF4FF6FF710148FFF792FF08BD60
:100550000010014000BFFEE77047F8B506460C46A4
:1005600015468DF800608DF801408DF8025001208D
:100570008DF80300684600F001F8F8BD70B5002161
:1005800000230F22C47804B3154C246804F4E064FB
:10059000C4F5E064210AC1F10403CA40447804FAB6
:1005A00003F184781440214309010E4C0678A155CB
:1005B000047804F01F050124AC4005786D11AD00EE
:1005C00005F1E025C5F8004109E0047804F01F05B5
:1005D0000124AC40044D0678761145F8264070BDE4
:1005E0000CED00E000E400E080E100E0024901439E
:1005F000024A1160704700000000FA050CED00E0AF
:100600007047000029B1064AD2690243044BDA61FF
:1006100004E0034AD2698243014BDA61704700006B
:100620000010024029B1064A92690243044B9A61C4
:1006300004E0034A92698243014B9A6170470000CB
:100640000010024030B500210022002400232D4D6F
:100650006D6805F00C0121B1042905D0082923D1CA
:1006600005E0294D056022E0274D05601FE0254D7E
:100670006D6805F47012234D6D6805F48034022511
:1006800005EB92421CB9214D554305600BE01D4D11
:100690006D6805F400351DB11C4D5543056002E041
:1006A000194D5543056002E0174D056000BF00BFBE
:1006B000144D6D6805F0F0010909154D6B5C056876
:1006C000DD4045600F4D6D6805F4E061090A104D8D
:1006D0006B5C4568DD4085600A4D6D6805F46051CE
:1006E000C90A0B4D6B5C4568DD40C560054D6D6802
:1006F00005F44041890B074D6B5CC568B5FBF3F50C
:10070000056130BD0010024000127A0000093D0072
:100710001400002024000020024909888143014A76
:10072000118070470428004070B500260024002581
:1007300000F07AF806463848B6FBF0F437480088EF
:10074000A0423BD035490C8040F2C67510E02846E7
:10075000FFF7CCFE40B9B4F5B77F02D3A4F5B77468
:1007600004E0681C85B206E0A4F26D14681C85B232
:10077000B4F5B67FEBD800BF29480580002516E008
:1007800027490888FFF7B2FE30B9012D04D11D2C8E
:1007900001D31D3C09E00CE02248405DA04203D893
:1007A0002048405D241A00E003E0681C85B21C2C40
:1007B000E6D200BF681C1A498870CC701648B6FB98
:1007C000F0F100FB11644FF46160B4FBF0F01449E8
:1007D00008714FF46160B4FBF0F100FB11403C2163
:1007E000B0FBF1F00E4948714FF46160B4FBF0F1D9
:1007F00000FB11403C21B0FBF1F201FB1200084963
:1008000088710B46DA789978188800F029F804493D
:10081000C871002070BD000080510100120000204E
:1008200008000020C40F0008002103480188001FB1
:10083000008841EA004070471C2800400146002023
:10084000064A12880A40D0B2044A121F12880A408F
:1008500012B108B1012000E00020704704280040D8
:10086000F0B503460C461546642093FBF0F0C6B283
:10087000642093FBF0F700FB1730C1B2132E02DDAA
:1008800001F16400C1B20846CF1701EB977701EB85
:10089000A707BAB2072092FBF0F700FB172082B23D
:1008A0005719601EDFF82CC01CF80000384482B2D3
:1008B000CF1701EB9777BF10A1EB87071FB9032C68
:1008C00001DA501E82B2072092FBF0F700FB1720DE
:1008D000C0B2F0BDB80F000810B51148006808B9E3
:1008E000012000E000200E4908600120FFF7A6FF6C
:1008F000012809D1FFF710FF0A48007820B9FFF757
:1009000013FF0120074908700220FFF797FF20B16D
:100910000220FFF701FFFFF707FF00F005F810BD09
:100920008C0122421000002000BF0348008800F024
:1009300020000028F9D0704704280040704710B507
:1009400000F002F810BD00000CB5002001900090EE
:100950003348006840F480303149086000BF3048B7
:10096000006800F4003000900198401C019000984D
:1009700018B90198B0F5A06FF1D12948006800F4CA
:10098000003010B10120009001E00020009000989C
:10099000012843D12348006840F010002149086035
:1009A0000846006820F0030008600846006840F030
:1009B000020008601A4840681949486008464068C3
:1009C00048600846406840F48060486008464068D7
:1009D00020F47C1048600846406840F4E810486005
:1009E0000846006840F08070086000BF0C4800684E
:1009F00000F000700028F9D00948406820F003009A
:100A0000074948600846406840F00200486000BF5F
:100A10000348406800F00C000828F9D10CBD000024
:100A20000010024000200240042808D14FF0E021CD
:100A3000096941F004014FF0E022116107E04FF035
:100A4000E021096921F004014FF0E02211617047B3
:100A50007047000010B504466FF00400FFF7E4FF94
:100A6000E11704EB5171C1F3C701074A1170104639
:100A7000007800EB4001C1EBC0104FF6FF7101EAB6
:100A8000C0000249088010BD0000002002000020C4
:100A900010B51348006840F001001149086008468D
:100AA0004068104908400E494860084600680E49F1
:100AB00008400B4908600846006820F48020086060
:100AC0000846406820F4FE0048604FF41F0088602C
:100AD000FFF735FF4FF000600449086010BD0000CB
:100AE000001002400000FFF8FFFFF6FE08ED00E0F6
:100AF00010B50121880700F015F838B106480068E4
:100B000008B9012000E0002003490860012188079E
:100B100000F005F810BD0000940122427047CA435E
:100B20000282704730B50246002000230024158A57
:100B300005EA0103958905EA010413B10CB101200E
:100B400000E0002030BD000010B52021064800F074
:100B500089F8012806D1044800F022F9C4B22046E1
:100B600000F09CF910BD00000038014010B52021B4
:100B7000064800F077F8012806D1044800F010F983
:100B8000C4B2204600F08AF910BD000000440040C5
:100B900010B586B0044601210520FFF743FD012171
:100BA0004804FFF72FFD0420ADF8140018208DF83D
:100BB000170003208DF8160005A91948FFF7CEFB92
:100BC0000820ADF8140004208DF8170003208DF8DC
:100BD000160005A91248FFF7C1FB01940020ADF8EB
:100BE0000800ADF80C00ADF80A000C20ADF80E00BE
:100BF0000020ADF8100001A90A4800F065F80121B5
:100C0000084800F023F8012240F22551054800F081
:100C100036F8022203212620FFF79FFC06B010BD04
:100C2000000801400044004010B52021064800F0B3
:100C300019F8012806D1044800F0B2F8C4B22046E1
:100C400000F02CF910BD00000048004021B182895D
:100C500042F40052828104E082894DF6FF731A400B
:100C60008281704702460020B1F5007F00D100BFAD
:100C700013880B400BB1012000E000207047F0B555
:100C80000346002400260025002040F66A17B942DA
:100C900000D100BF1846C1F3421401F01F0601271E
:100CA00007FA06F5012C01D10C3004E0022C01D129
:100CB000103000E014301AB107682F43076002E0DB
:100CC0000768AF430760F0BD2DE9F04786B00546E1
:100CD0000E460024A24600BFA1460027B08900B1FD
:100CE00000BF2F462C8A4CF6FF700440F088044366
:100CF0002C82AC894EF6F3100440B0883189084349
:100D0000718908430443AC81AC8A4FF6FF4004402C
:100D1000B0890443AC8201A8FFF794FC1F488742C6
:100D200002D1DDF810A001E0DDF80CA0A88900F4E4
:100D3000004040B10AEBCA0000EB0A1031684900DC
:100D4000B0FBF1F807E00AEBCA0000EB0A103168CB
:100D50008900B0FBF1F86420B8FBF0F00401200931
:100D6000642101FB1089A88900F4004040B13220C1
:100D700000EBC900B0FBF1F000F00700044308E00D
:100D8000322000EB09106421B0FBF1F000F00F00FD
:100D900004432C8106B0BDE8F08700000038014014
:100DA00001468888C0F308007047C1F308028280BA
:100DB000704770B504460D4629462046FFF7F5FFFB
:100DC00000BF80212046FFF74DFF0028F9D070BDFD
:100DD00000BFFEE70020014908607047082C004072
:100DE00010B57F2000F00EF8FFF7F4FF044800680C
:100DF00008B9012000E000200149086010BD000092
:100E00009C01224200F07F01014A116070470000FE
:100E1000002C004002E008C8121F08C1002AFAD1C5
:100E200070477047002001E001C1121F002AFBD16A
:100E3000704700000146114A12884A434FF0E023F0
:100E40005A6100229A611A46126942F001021A613F
:100E500000BF4FF0E022106900F001021AB100F467
:100E60008032002AF5D04FF0E022126922F0010210
:100E70004FF0E0231A6100229A61704702000020BF
:100E800010B54820FFF7E6FD4FF4A060FFF7AEFB7A
:100E9000FFF792F9FFF77AF9002010BD01460E4ADC
:100EA0001278501CC21700EB12621212A0EB022241
:100EB0000A4B1B789A420ED00948074A127881548F
:100EC000054A1278501CC21700EB12621212A0EBF6
:100ED0000222014B1A707047040000200500002018
:100EE0002800002010B511E00C480D4A1278815CF2
:100EF0000C48FFF75EFF0A490978481CC11700EB50
:100F000011610912A0EB0121054A11700448007813
:100F1000054909788842E7D110BD0000280100206A
:100F200007000020004400400600002010B511E03A
:100F30000C480D490978445C0B490978481CC117D5
:100F400000EB11610912A0EB0121074A1170204644
:100F500000F00EF804480078044909788842E7D187
:100F600010BD000028000020050000200400002023
:100F700001460E4A1278501CC21700EB1262121280
:100F8000A0EB02220A4B1B789A420ED00948074A6E
:100F900012788154054A1278501CC21700EB126275
:100FA0001212A0EB0222014B1A70704706000020BB
:100FB00007000020280100200003030601040602A8
:100FC000050003051F1C1F1E1F1E1F1F1E1F1E1FA7
:100FD000F00F00080000002028000000140E000898
:100FE000181000082800002000060000240E000849
:100FF00000000000000000000000000000000000F1
:1010000000000000000000000102030401020304CC
:081010000607080902040608A6
:0400000508000131BD
:00000001FF
